{
  "contractName": "GioconePortone",
  "abi": [
    {
      "constant": true,
      "inputs": [
        {
          "name": "",
          "type": "uint256"
        }
      ],
      "name": "doorSets",
      "outputs": [
        {
          "name": "id",
          "type": "uint256"
        },
        {
          "name": "doorNumber",
          "type": "uint256"
        },
        {
          "name": "doorWinner",
          "type": "uint256"
        },
        {
          "name": "prize",
          "type": "uint256"
        }
      ],
      "payable": false,
      "stateMutability": "view",
      "type": "function"
    },
    {
      "constant": true,
      "inputs": [
        {
          "name": "",
          "type": "uint256"
        }
      ],
      "name": "plays",
      "outputs": [
        {
          "name": "doorSet",
          "type": "uint256"
        },
        {
          "name": "door",
          "type": "uint256"
        },
        {
          "name": "prize",
          "type": "uint256"
        },
        {
          "name": "winner",
          "type": "bool"
        }
      ],
      "payable": false,
      "stateMutability": "view",
      "type": "function"
    },
    {
      "constant": true,
      "inputs": [],
      "name": "owner",
      "outputs": [
        {
          "name": "",
          "type": "address"
        }
      ],
      "payable": false,
      "stateMutability": "view",
      "type": "function"
    },
    {
      "constant": true,
      "inputs": [],
      "name": "playsCount",
      "outputs": [
        {
          "name": "",
          "type": "uint256"
        }
      ],
      "payable": false,
      "stateMutability": "view",
      "type": "function"
    },
    {
      "constant": true,
      "inputs": [
        {
          "name": "",
          "type": "address"
        }
      ],
      "name": "players",
      "outputs": [
        {
          "name": "totalBet",
          "type": "uint256"
        },
        {
          "name": "totalPrize",
          "type": "uint256"
        },
        {
          "name": "totalWin",
          "type": "uint256"
        },
        {
          "name": "totalPlays",
          "type": "uint256"
        }
      ],
      "payable": false,
      "stateMutability": "view",
      "type": "function"
    },
    {
      "constant": true,
      "inputs": [],
      "name": "doorSetCount",
      "outputs": [
        {
          "name": "",
          "type": "uint256"
        }
      ],
      "payable": false,
      "stateMutability": "view",
      "type": "function"
    },
    {
      "inputs": [],
      "payable": false,
      "stateMutability": "nonpayable",
      "type": "constructor"
    },
    {
      "anonymous": false,
      "inputs": [
        {
          "indexed": false,
          "name": "Status",
          "type": "bool"
        },
        {
          "indexed": false,
          "name": "Prize",
          "type": "uint256"
        },
        {
          "indexed": false,
          "name": "Bet",
          "type": "uint256"
        }
      ],
      "name": "WonEvent",
      "type": "event"
    },
    {
      "constant": true,
      "inputs": [],
      "name": "getPlay",
      "outputs": [
        {
          "name": "_setdoor",
          "type": "uint256"
        },
        {
          "name": "_totaldoor",
          "type": "uint256"
        }
      ],
      "payable": false,
      "stateMutability": "view",
      "type": "function"
    },
    {
      "constant": false,
      "inputs": [
        {
          "name": "_setdoor",
          "type": "uint256"
        },
        {
          "name": "_numberdoor",
          "type": "uint256"
        }
      ],
      "name": "play",
      "outputs": [],
      "payable": true,
      "stateMutability": "payable",
      "type": "function"
    }
  ],
  "bytecode": "0x608060405234801561001057600080fd5b5061002e6006600260016100e1640100000000026401000000009004565b61004b6006600160026100e1640100000000026401000000009004565b6100686006600460016100e1640100000000026401000000009004565b6100856006600560036100e1640100000000026401000000009004565b6100a26006600360016100e1640100000000026401000000009004565b6100bf6006600460026100e1640100000000026401000000009004565b6100dc6006600260046100e1640100000000026401000000009004565b61015c565b60016000815480929190600101919050555060806040519081016040528060015481526020018481526020018381526020018281525060036000600154815260200190815260200160002060008201518160000155602082015181600101556040820151816002015560608201518160030155905050505050565b6108308061016b6000396000f30060806040526004361061008e576000357c0100000000000000000000000000000000000000000000000000000000900463ffffffff1680630bd5d28414610093578063219e7c96146100c557806345d4682a1461011b5780637bc49a95146101755780638da5cb5b1461019f57806399b1f86a146101f6578063e2eb41ff14610221578063fdfdd3021461028d575b600080fd5b34801561009f57600080fd5b506100a86102b8565b604051808381526020018281526020019250505060405180910390f35b3480156100d157600080fd5b506100f0600480360381019080803590602001909291905050506102e2565b6040518085815260200184815260200183815260200182815260200194505050505060405180910390f35b34801561012757600080fd5b5061014660048036038101908080359060200190929190505050610312565b604051808581526020018481526020018381526020018215151515815260200194505050505060405180910390f35b61019d600480360381019080803590602001909291908035906020019092919050505061034f565b005b3480156101ab57600080fd5b506101b46104f1565b604051808273ffffffffffffffffffffffffffffffffffffffff1673ffffffffffffffffffffffffffffffffffffffff16815260200191505060405180910390f35b34801561020257600080fd5b5061020b610516565b6040518082815260200191505060405180910390f35b34801561022d57600080fd5b50610262600480360381019080803573ffffffffffffffffffffffffffffffffffffffff16906020019092919050505061051c565b6040518085815260200184815260200183815260200182815260200194505050505060405180910390f35b34801561029957600080fd5b506102a261054c565b6040518082815260200191505060405180910390f35b60008060006002905080600360008381526020019081526020016000206001015492509250509091565b60036020528060005260406000206000915090508060000154908060010154908060020154908060030154905084565b60046020528060005260406000206000915090508060000154908060010154908060020154908060030160009054906101000a900460ff16905084565b610357610787565b61035f6107b2565b6080604051908101604052808581526020018481526020016000815260200160001515815250915060036000858152602001908152602001600020608060405190810160405290816000820154815260200160018201548152602001600282015481526020016003820154815250509050828160400151141561044d57600182606001901515908115158152505080606001518260400181815250503373ffffffffffffffffffffffffffffffffffffffff166108fc826060015134029081150290604051600060405180830381858888f19350505050158015610447573d6000803e3d6000fd5b5061046a565b600082606001901515908115158152505060008260400181815250505b61047382610552565b6104873334846060015185604001516105be565b7f7d865287d53d6e1783032866ce60839cac7dde49909843f9184aa47e7faf87a8826060015183606001516104bd5760006104c3565b83604001515b346040518084151515158152602001838152602001828152602001935050505060405180910390a150505050565b6000809054906101000a900473ffffffffffffffffffffffffffffffffffffffff1681565b60025481565b60056020528060005260406000206000915090508060000154908060010154908060020154908060030154905084565b60015481565b6002600081548092919060010191905055508060046000600254815260200190815260200160002060008201518160000155602082015181600101556040820151816002015560608201518160030160006101000a81548160ff02191690831515021790555090505050565b6105c66107db565b608060405190810160405280600081526020016000815260200160008152602001600081525090506000600560008773ffffffffffffffffffffffffffffffffffffffff1673ffffffffffffffffffffffffffffffffffffffff1681526020019081526020016000206003015414156106af57600560008673ffffffffffffffffffffffffffffffffffffffff1673ffffffffffffffffffffffffffffffffffffffff1681526020019081526020016000206080604051908101604052908160008201548152602001600182015481526020016002820154815260200160038201548152505090505b83816000018181510191508181525050826106cb5760006106cf565b8382025b816020015101816020018181510191508181525050826106f05760006106f3565b60015b60ff168160400151018160400181815250508060600180518091906001018152505080600560008773ffffffffffffffffffffffffffffffffffffffff1673ffffffffffffffffffffffffffffffffffffffff168152602001908152602001600020600082015181600001556020820151816001015560408201518160020155606082015181600301559050505050505050565b6080604051908101604052806000815260200160008152602001600081526020016000151581525090565b608060405190810160405280600081526020016000815260200160008152602001600081525090565b6080604051908101604052806000815260200160008152602001600081526020016000815250905600a165627a7a72305820a1b6971377283f4692467ea126f8b291f8cd9ba8305228aa3abe5fea3993b2270029",
  "source": "pragma solidity ^0.4.21;\r\n\r\n\r\n/// REALTHIUM inc.\r\ncontract GioconePortone {\r\n    event WonEvent(bool Status, uint Prize, uint Bet);\r\n    \r\n    struct DoorSet {\r\n        uint id;\r\n        uint doorNumber;\r\n        uint doorWinner;        \r\n        uint prize;\r\n    }\r\n\r\n    struct GamePlayed {\r\n        uint doorSet;\r\n        uint door;\r\n        uint prize;\r\n        bool winner;\r\n    }\r\n\r\n    struct PlayerStat {\r\n        uint totalBet;\r\n        uint totalPrize;\r\n        uint totalWin;\r\n        uint totalPlays;\r\n    }\r\n\r\n    address public owner;\r\n\r\n    uint public doorSetCount;\r\n    uint public playsCount;\r\n    mapping(uint => DoorSet) public doorSets;\r\n    mapping(uint => GamePlayed) public plays;\r\n    mapping(address => PlayerStat) public players;\r\n\r\n    // Initialize\r\n    // Constructor is called only once and can not be called again (Ethereum Solidity specification)\r\n    constructor() public {\t\r\n        addDoorSet(6, 2, 1);\r\n        addDoorSet(6, 1, 2);\r\n        addDoorSet(6, 4, 1);\r\n        addDoorSet(6, 5, 3);\r\n        addDoorSet(6, 3, 1);\r\n        addDoorSet(6, 4, 2);\r\n        addDoorSet(6, 2, 4);\r\n    }\r\n\r\n    function addPlay(GamePlayed play) private {\r\n        playsCount++;\r\n        plays[playsCount] = play;\r\n    }\r\n\r\n    function addDoorSet(uint _doorNumber, uint _doorWinner, uint _winnerPrize) private {\r\n        doorSetCount ++;\r\n        doorSets[doorSetCount] = DoorSet(doorSetCount, _doorNumber, _doorWinner, _winnerPrize);\r\n    }\r\n\r\n    function updatePlayerStat(address player, uint bet, bool winner, uint prize) private {\r\n        PlayerStat memory ps = PlayerStat(0, 0, 0, 0);       \r\n        if (players[player].totalPlays == 0) {\r\n            ps = players[player];\r\n        } \r\n        ps.totalBet += bet;\r\n        ps.totalPrize += ps.totalPrize + (winner ? prize * bet : 0);\r\n        ps.totalWin = ps.totalWin + (winner ? 1 : 0);\r\n        ps.totalPlays++;\r\n        players[player] = ps;\r\n    }\r\n    \r\n    function getPlay() public view returns (uint _setdoor, uint _totaldoor) {\r\n        uint val;\r\n        val = 2; //block.number % doorSetCount;\r\n        return(val, doorSets[val].doorNumber);\r\n    }\r\n    \r\n    function play(uint _setdoor, uint _numberdoor) payable public {\r\n        GamePlayed memory gp = GamePlayed(_setdoor, _numberdoor, 0, false);\r\n        \r\n        DoorSet memory ds = doorSets[_setdoor];\r\n        if (ds.doorWinner == _numberdoor) {\r\n            gp.winner = true;\r\n            gp.prize = ds.prize;\r\n            msg.sender.transfer(msg.value*ds.prize);\r\n        } else {\r\n            gp.winner = false;\r\n            gp.prize = 0;\r\n        }\r\n        addPlay(gp);\r\n\r\n        updatePlayerStat(msg.sender, msg.value, gp.winner, gp.prize);\r\n\r\n        emit WonEvent(gp.winner, (gp.winner ? gp.prize : 0), msg.value);\r\n    }\r\n}",
  "sourcePath": "C:\\Temp\\source\\election\\contracts\\GioconePortone.sol",
  "compiler": {
    "name": "solc",
    "version": "0.4.24+commit.e67f0147.Emscripten.clang"
  },
  "schemaVersion": "2.0.1",
  "updatedAt": "2018-07-12T07:21:30.110Z"
}